{"abi":[{"type":"constructor","inputs":[{"name":"_owner","type":"address","internalType":"address"},{"name":"_entropyAddress","type":"address","internalType":"address"},{"name":"_usdcAddress","type":"address","internalType":"address"},{"name":"_gameName","type":"string","internalType":"string"},{"name":"_startTime","type":"uint256","internalType":"uint256"},{"name":"_endTime","type":"uint256","internalType":"uint256"},{"name":"_healthDecayRate","type":"uint256","internalType":"uint256"}],"stateMutability":"nonpayable"},{"type":"function","name":"_entropyCallback","inputs":[{"name":"sequence","type":"uint64","internalType":"uint64"},{"name":"provider","type":"address","internalType":"address"},{"name":"randomNumber","type":"bytes32","internalType":"bytes32"}],"outputs":[],"stateMutability":"nonpayable"},{"type":"function","name":"battle","inputs":[{"name":"p1","type":"address","internalType":"address"},{"name":"p2","type":"address","internalType":"address"}],"outputs":[],"stateMutability":"payable"},{"type":"function","name":"endTime","inputs":[],"outputs":[{"name":"","type":"uint256","internalType":"uint256"}],"stateMutability":"view"},{"type":"function","name":"entropy","inputs":[],"outputs":[{"name":"","type":"address","internalType":"contract IEntropyV2"}],"stateMutability":"view"},{"type":"function","name":"gameName","inputs":[],"outputs":[{"name":"","type":"string","internalType":"string"}],"stateMutability":"view"},{"type":"function","name":"healthDecayRate","inputs":[],"outputs":[{"name":"","type":"uint256","internalType":"uint256"}],"stateMutability":"view"},{"type":"function","name":"hp","inputs":[{"name":"","type":"address","internalType":"address"}],"outputs":[{"name":"","type":"uint256","internalType":"uint256"}],"stateMutability":"view"},{"type":"function","name":"isRegistered","inputs":[{"name":"user","type":"address","internalType":"address"}],"outputs":[{"name":"","type":"bool","internalType":"bool"}],"stateMutability":"view"},{"type":"function","name":"lastUpdatedHpTime","inputs":[{"name":"","type":"address","internalType":"address"}],"outputs":[{"name":"","type":"uint256","internalType":"uint256"}],"stateMutability":"view"},{"type":"function","name":"myHealth","inputs":[{"name":"user","type":"address","internalType":"address"}],"outputs":[{"name":"","type":"uint256","internalType":"uint256"}],"stateMutability":"view"},{"type":"function","name":"owner","inputs":[],"outputs":[{"name":"","type":"address","internalType":"address"}],"stateMutability":"view"},{"type":"function","name":"player1","inputs":[],"outputs":[{"name":"","type":"address","internalType":"address"}],"stateMutability":"view"},{"type":"function","name":"player2","inputs":[],"outputs":[{"name":"","type":"address","internalType":"address"}],"stateMutability":"view"},{"type":"function","name":"register","inputs":[{"name":"user","type":"address","internalType":"address"}],"outputs":[],"stateMutability":"nonpayable"},{"type":"function","name":"registered","inputs":[{"name":"","type":"address","internalType":"address"}],"outputs":[{"name":"","type":"bool","internalType":"bool"}],"stateMutability":"view"},{"type":"function","name":"startTime","inputs":[],"outputs":[{"name":"","type":"uint256","internalType":"uint256"}],"stateMutability":"view"},{"type":"function","name":"usdc","inputs":[],"outputs":[{"name":"","type":"address","internalType":"contract IERC20"}],"stateMutability":"view"},{"type":"event","name":"BattleResult","inputs":[{"name":"winner","type":"address","indexed":true,"internalType":"address"},{"name":"loser","type":"address","indexed":true,"internalType":"address"},{"name":"xpAmount","type":"uint256","indexed":false,"internalType":"uint256"},{"name":"currentTime","type":"uint256","indexed":false,"internalType":"uint256"}],"anonymous":false},{"type":"event","name":"UserRegistered","inputs":[{"name":"user","type":"address","indexed":true,"internalType":"address"},{"name":"xp","type":"uint256","indexed":false,"internalType":"uint256"},{"name":"deposit","type":"uint256","indexed":false,"internalType":"uint256"}],"anonymous":false}],"bytecode":{"object":"0x608060405234801561000f575f5ffd5b50604051612a89380380612a89833981810160405281019061003191906102fb565b865f5f6101000a81548173ffffffffffffffffffffffffffffffffffffffff021916908373ffffffffffffffffffffffffffffffffffffffff16021790555085600a5f6101000a81548173ffffffffffffffffffffffffffffffffffffffff021916908373ffffffffffffffffffffffffffffffffffffffff16021790555083600390816100bf91906105bb565b5082600481905550816005819055508060068190555084600b5f6101000a81548173ffffffffffffffffffffffffffffffffffffffff021916908373ffffffffffffffffffffffffffffffffffffffff1602179055505050505050505061068a565b5f604051905090565b5f5ffd5b5f5ffd5b5f73ffffffffffffffffffffffffffffffffffffffff82169050919050565b5f61015b82610132565b9050919050565b61016b81610151565b8114610175575f5ffd5b50565b5f8151905061018681610162565b92915050565b5f5ffd5b5f5ffd5b5f601f19601f8301169050919050565b7f4e487b71000000000000000000000000000000000000000000000000000000005f52604160045260245ffd5b6101da82610194565b810181811067ffffffffffffffff821117156101f9576101f86101a4565b5b80604052505050565b5f61020b610121565b905061021782826101d1565b919050565b5f67ffffffffffffffff821115610236576102356101a4565b5b61023f82610194565b9050602081019050919050565b8281835e5f83830152505050565b5f61026c6102678461021c565b610202565b90508281526020810184848401111561028857610287610190565b5b61029384828561024c565b509392505050565b5f82601f8301126102af576102ae61018c565b5b81516102bf84826020860161025a565b91505092915050565b5f819050919050565b6102da816102c8565b81146102e4575f5ffd5b50565b5f815190506102f5816102d1565b92915050565b5f5f5f5f5f5f5f60e0888a0312156103165761031561012a565b5b5f6103238a828b01610178565b97505060206103348a828b01610178565b96505060406103458a828b01610178565b955050606088015167ffffffffffffffff8111156103665761036561012e565b5b6103728a828b0161029b565b94505060806103838a828b016102e7565b93505060a06103948a828b016102e7565b92505060c06103a58a828b016102e7565b91505092959891949750929550565b5f81519050919050565b7f4e487b71000000000000000000000000000000000000000000000000000000005f52602260045260245ffd5b5f600282049050600182168061040257607f821691505b602082108103610415576104146103be565b5b50919050565b5f819050815f5260205f209050919050565b5f6020601f8301049050919050565b5f82821b905092915050565b5f600883026104777fffffffffffffffffffffffffffffffffffffffffffffffffffffffffffffffff8261043c565b610481868361043c565b95508019841693508086168417925050509392505050565b5f819050919050565b5f6104bc6104b76104b2846102c8565b610499565b6102c8565b9050919050565b5f819050919050565b6104d5836104a2565b6104e96104e1826104c3565b848454610448565b825550505050565b5f5f905090565b6105006104f1565b61050b8184846104cc565b505050565b5b8181101561052e576105235f826104f8565b600181019050610511565b5050565b601f821115610573576105448161041b565b61054d8461042d565b8101602085101561055c578190505b6105706105688561042d565b830182610510565b50505b505050565b5f82821c905092915050565b5f6105935f1984600802610578565b1980831691505092915050565b5f6105ab8383610584565b9150826002028217905092915050565b6105c4826103b4565b67ffffffffffffffff8111156105dd576105dc6101a4565b5b6105e782546103eb565b6105f2828285610532565b5f60209050601f831160018114610623575f8415610611578287015190505b61061b85826105a0565b865550610682565b601f1984166106318661041b565b5f5b8281101561065857848901518255600182019150602085019450602081019050610633565b868310156106755784890151610671601f891682610584565b8355505b6001600288020188555050505b505050505050565b6123f2806106975f395ff3fe6080604052600436106100fd575f3560e01c806359a5f12d116100945780638da5cb5b116100635780638da5cb5b1461032b578063b2dd5c0714610355578063b6c206cc14610391578063c3c5a547146103ad578063d30895e4146103e9576100fd565b806359a5f12d146102715780635fac91021461029b57806369527c64146102d757806378e9792514610301576100fd565b80634420e486116100d05780634420e486146101cd578063473bc223146101f557806347ce07cc1461021f57806352a5f1f814610249576100fd565b80630f8e29dd14610101578063296d707a1461013d5780633197cbb6146101795780633e413bee146101a3575b5f5ffd5b34801561010c575f5ffd5b50610127600480360381019061012291906116d7565b610413565b604051610134919061171a565b60405180910390f35b348015610148575f5ffd5b50610163600480360381019061015e91906116d7565b610428565b604051610170919061171a565b60405180910390f35b348015610184575f5ffd5b5061018d61046e565b60405161019a919061171a565b60405180910390f35b3480156101ae575f5ffd5b506101b7610474565b6040516101c4919061178e565b60405180910390f35b3480156101d8575f5ffd5b506101f360048036038101906101ee91906116d7565b610499565b005b348015610200575f5ffd5b50610209610741565b6040516102169190611817565b60405180910390f35b34801561022a575f5ffd5b506102336107cd565b6040516102409190611857565b60405180910390f35b348015610254575f5ffd5b5061026f600480360381019061026a91906118e0565b6107f2565b005b34801561027c575f5ffd5b506102856108ea565b604051610292919061193f565b60405180910390f35b3480156102a6575f5ffd5b506102c160048036038101906102bc91906116d7565b61090f565b6040516102ce919061171a565b60405180910390f35b3480156102e2575f5ffd5b506102eb610924565b6040516102f8919061171a565b60405180910390f35b34801561030c575f5ffd5b5061031561092a565b604051610322919061171a565b60405180910390f35b348015610336575f5ffd5b5061033f610930565b60405161034c919061193f565b60405180910390f35b348015610360575f5ffd5b5061037b600480360381019061037691906116d7565b610954565b6040516103889190611972565b60405180910390f35b6103ab60048036038101906103a6919061198b565b610971565b005b3480156103b8575f5ffd5b506103d360048036038101906103ce91906116d7565b610e18565b6040516103e09190611972565b60405180910390f35b3480156103f4575f5ffd5b506103fd610e6a565b60405161040a919061193f565b60405180910390f35b6008602052805f5260405f205f915090505481565b5f60085f8373ffffffffffffffffffffffffffffffffffffffff1673ffffffffffffffffffffffffffffffffffffffff1681526020019081526020015f20549050919050565b60055481565b600b5f9054906101000a900473ffffffffffffffffffffffffffffffffffffffff1681565b60045442106104dd576040517f08c379a00000000000000000000000000000000000000000000000000000000081526004016104d490611a13565b60405180910390fd5b60075f8273ffffffffffffffffffffffffffffffffffffffff1673ffffffffffffffffffffffffffffffffffffffff1681526020019081526020015f205f9054906101000a900460ff1615610567576040517f08c379a000000000000000000000000000000000000000000000000000000000815260040161055e90611a7b565b60405180910390fd5b600b5f9054906101000a900473ffffffffffffffffffffffffffffffffffffffff1673ffffffffffffffffffffffffffffffffffffffff166323b872dd3330620f42406040518463ffffffff1660e01b81526004016105c893929190611ad2565b6020604051808303815f875af11580156105e4573d5f5f3e3d5ffd5b505050506040513d601f19601f820116820180604052508101906106089190611b31565b50600160075f8373ffffffffffffffffffffffffffffffffffffffff1673ffffffffffffffffffffffffffffffffffffffff1681526020019081526020015f205f6101000a81548160ff021916908315150217905550606460085f8373ffffffffffffffffffffffffffffffffffffffff1673ffffffffffffffffffffffffffffffffffffffff1681526020019081526020015f208190555060045460095f8373ffffffffffffffffffffffffffffffffffffffff1673ffffffffffffffffffffffffffffffffffffffff1681526020019081526020015f20819055508073ffffffffffffffffffffffffffffffffffffffff167f47c8e83729a89f8b0c23b722e4c21f48295ddfcd683910c564e11e6b6037d01c6064670de0b6b3a7640000604051610736929190611bce565b60405180910390a250565b6003805461074e90611c22565b80601f016020809104026020016040519081016040528092919081815260200182805461077a90611c22565b80156107c55780601f1061079c576101008083540402835291602001916107c5565b820191905f5260205f20905b8154815290600101906020018083116107a857829003601f168201915b505050505081565b600a5f9054906101000a900473ffffffffffffffffffffffffffffffffffffffff1681565b5f6107fb610e8f565b90505f73ffffffffffffffffffffffffffffffffffffffff168173ffffffffffffffffffffffffffffffffffffffff160361086b576040517f08c379a000000000000000000000000000000000000000000000000000000000815260040161086290611c9c565b60405180910390fd5b8073ffffffffffffffffffffffffffffffffffffffff163373ffffffffffffffffffffffffffffffffffffffff16146108d9576040517f08c379a00000000000000000000000000000000000000000000000000000000081526004016108d090611d2a565b60405180910390fd5b6108e4848484610eb7565b50505050565b60025f9054906101000a900473ffffffffffffffffffffffffffffffffffffffff1681565b6009602052805f5260405f205f915090505481565b60065481565b60045481565b5f5f9054906101000a900473ffffffffffffffffffffffffffffffffffffffff1681565b6007602052805f5260405f205f915054906101000a900460ff1681565b5f5f9054906101000a900473ffffffffffffffffffffffffffffffffffffffff1673ffffffffffffffffffffffffffffffffffffffff163373ffffffffffffffffffffffffffffffffffffffff16146109ff576040517f08c379a00000000000000000000000000000000000000000000000000000000081526004016109f690611db8565b60405180910390fd5b600454421015610a44576040517f08c379a0000000000000000000000000000000000000000000000000000000008152600401610a3b90611e20565b60405180910390fd5b600554421115610a89576040517f08c379a0000000000000000000000000000000000000000000000000000000008152600401610a8090611e88565b60405180910390fd5b60075f8373ffffffffffffffffffffffffffffffffffffffff1673ffffffffffffffffffffffffffffffffffffffff1681526020019081526020015f205f9054906101000a900460ff16610b12576040517f08c379a0000000000000000000000000000000000000000000000000000000008152600401610b0990611ef0565b60405180910390fd5b60075f8273ffffffffffffffffffffffffffffffffffffffff1673ffffffffffffffffffffffffffffffffffffffff1681526020019081526020015f205f9054906101000a900460ff16610b9b576040517f08c379a0000000000000000000000000000000000000000000000000000000008152600401610b9290611f58565b60405180910390fd5b8073ffffffffffffffffffffffffffffffffffffffff168273ffffffffffffffffffffffffffffffffffffffff1603610c09576040517f08c379a0000000000000000000000000000000000000000000000000000000008152600401610c0090611fe6565b60405180910390fd5b8160015f6101000a81548173ffffffffffffffffffffffffffffffffffffffff021916908373ffffffffffffffffffffffffffffffffffffffff1602179055508060025f6101000a81548173ffffffffffffffffffffffffffffffffffffffff021916908373ffffffffffffffffffffffffffffffffffffffff1602179055505f600a5f9054906101000a900473ffffffffffffffffffffffffffffffffffffffff1673ffffffffffffffffffffffffffffffffffffffff16638204b67a6040518163ffffffff1660e01b8152600401602060405180830381865afa158015610cf4573d5f5f3e3d5ffd5b505050506040513d601f19601f82011682018060405250810190610d189190612049565b9050806fffffffffffffffffffffffffffffffff16341015610d6f576040517f08c379a0000000000000000000000000000000000000000000000000000000008152600401610d66906120be565b60405180910390fd5b600a5f9054906101000a900473ffffffffffffffffffffffffffffffffffffffff1673ffffffffffffffffffffffffffffffffffffffff16637b43155d826fffffffffffffffffffffffffffffffff166040518263ffffffff1660e01b815260040160206040518083038185885af1158015610ded573d5f5f3e3d5ffd5b50505050506040513d601f19601f82011682018060405250810190610e1291906120f0565b50505050565b5f60075f8373ffffffffffffffffffffffffffffffffffffffff1673ffffffffffffffffffffffffffffffffffffffff1681526020019081526020015f205f9054906101000a900460ff169050919050565b60015f9054906101000a900473ffffffffffffffffffffffffffffffffffffffff1681565b5f600a5f9054906101000a900473ffffffffffffffffffffffffffffffffffffffff16905090565b5f4290505f60095f60015f9054906101000a900473ffffffffffffffffffffffffffffffffffffffff1673ffffffffffffffffffffffffffffffffffffffff1673ffffffffffffffffffffffffffffffffffffffff1681526020019081526020015f205482610f269190612148565b90505f60095f60025f9054906101000a900473ffffffffffffffffffffffffffffffffffffffff1673ffffffffffffffffffffffffffffffffffffffff1673ffffffffffffffffffffffffffffffffffffffff1681526020019081526020015f205483610f939190612148565b90505f60065483610fa491906121a8565b90505f60065483610fb591906121a8565b90505f60085f60015f9054906101000a900473ffffffffffffffffffffffffffffffffffffffff1673ffffffffffffffffffffffffffffffffffffffff1673ffffffffffffffffffffffffffffffffffffffff1681526020019081526020015f205490505f60085f60025f9054906101000a900473ffffffffffffffffffffffffffffffffffffffff1673ffffffffffffffffffffffffffffffffffffffff1673ffffffffffffffffffffffffffffffffffffffff1681526020019081526020015f20549050818411156110e7575f60085f60015f9054906101000a900473ffffffffffffffffffffffffffffffffffffffff1673ffffffffffffffffffffffffffffffffffffffff1673ffffffffffffffffffffffffffffffffffffffff1681526020019081526020015f20819055505b80831115611153575f60085f60025f9054906101000a900473ffffffffffffffffffffffffffffffffffffffff1673ffffffffffffffffffffffffffffffffffffffff1673ffffffffffffffffffffffffffffffffffffffff1681526020019081526020015f20819055505b5f60085f60015f9054906101000a900473ffffffffffffffffffffffffffffffffffffffff1673ffffffffffffffffffffffffffffffffffffffff1673ffffffffffffffffffffffffffffffffffffffff1681526020019081526020015f2054116111f3576040517f08c379a00000000000000000000000000000000000000000000000000000000081526004016111ea90612222565b60405180910390fd5b5f60085f60025f9054906101000a900473ffffffffffffffffffffffffffffffffffffffff1673ffffffffffffffffffffffffffffffffffffffff1673ffffffffffffffffffffffffffffffffffffffff1681526020019081526020015f205411611293576040517f08c379a000000000000000000000000000000000000000000000000000000000815260040161128a9061228a565b60405180910390fd5b5f6112a1896001606461163a565b90505f6112b18a6001600261163a565b9050600181036113be5785826112c79190612148565b60085f60015f9054906101000a900473ffffffffffffffffffffffffffffffffffffffff1673ffffffffffffffffffffffffffffffffffffffff1673ffffffffffffffffffffffffffffffffffffffff1681526020019081526020015f205f82825461133391906122a8565b9250508190555084826113469190612148565b60085f60025f9054906101000a900473ffffffffffffffffffffffffffffffffffffffff1673ffffffffffffffffffffffffffffffffffffffff1673ffffffffffffffffffffffffffffffffffffffff1681526020019081526020015f205f8282546113b29190612148565b925050819055506114bd565b84826113ca9190612148565b60085f60025f9054906101000a900473ffffffffffffffffffffffffffffffffffffffff1673ffffffffffffffffffffffffffffffffffffffff1673ffffffffffffffffffffffffffffffffffffffff1681526020019081526020015f205f82825461143691906122a8565b9250508190555085826114499190612148565b60085f60015f9054906101000a900473ffffffffffffffffffffffffffffffffffffffff1673ffffffffffffffffffffffffffffffffffffffff1673ffffffffffffffffffffffffffffffffffffffff1681526020019081526020015f205f8282546114b59190612148565b925050819055505b8860095f60015f9054906101000a900473ffffffffffffffffffffffffffffffffffffffff1673ffffffffffffffffffffffffffffffffffffffff1673ffffffffffffffffffffffffffffffffffffffff1681526020019081526020015f20819055508860095f60025f9054906101000a900473ffffffffffffffffffffffffffffffffffffffff1673ffffffffffffffffffffffffffffffffffffffff1673ffffffffffffffffffffffffffffffffffffffff1681526020019081526020015f208190555060025f9054906101000a900473ffffffffffffffffffffffffffffffffffffffff1673ffffffffffffffffffffffffffffffffffffffff1660015f9054906101000a900473ffffffffffffffffffffffffffffffffffffffff1673ffffffffffffffffffffffffffffffffffffffff167ff22f53e90e26ecbc38cf5af16a7befaeea129d17062e49b461a97a9a43c01161848c6040516116249291906122db565b60405180910390a3505050505050505050505050565b5f5f6001848461164a919061230b565b611654919061234b565b905080855f1c611664919061238c565b8461166f919061234b565b9150509392505050565b5f5ffd5b5f73ffffffffffffffffffffffffffffffffffffffff82169050919050565b5f6116a68261167d565b9050919050565b6116b68161169c565b81146116c0575f5ffd5b50565b5f813590506116d1816116ad565b92915050565b5f602082840312156116ec576116eb611679565b5b5f6116f9848285016116c3565b91505092915050565b5f819050919050565b61171481611702565b82525050565b5f60208201905061172d5f83018461170b565b92915050565b5f819050919050565b5f61175661175161174c8461167d565b611733565b61167d565b9050919050565b5f6117678261173c565b9050919050565b5f6117788261175d565b9050919050565b6117888161176e565b82525050565b5f6020820190506117a15f83018461177f565b92915050565b5f81519050919050565b5f82825260208201905092915050565b8281835e5f83830152505050565b5f601f19601f8301169050919050565b5f6117e9826117a7565b6117f381856117b1565b93506118038185602086016117c1565b61180c816117cf565b840191505092915050565b5f6020820190508181035f83015261182f81846117df565b905092915050565b5f6118418261175d565b9050919050565b61185181611837565b82525050565b5f60208201905061186a5f830184611848565b92915050565b5f67ffffffffffffffff82169050919050565b61188c81611870565b8114611896575f5ffd5b50565b5f813590506118a781611883565b92915050565b5f819050919050565b6118bf816118ad565b81146118c9575f5ffd5b50565b5f813590506118da816118b6565b92915050565b5f5f5f606084860312156118f7576118f6611679565b5b5f61190486828701611899565b9350506020611915868287016116c3565b9250506040611926868287016118cc565b9150509250925092565b6119398161169c565b82525050565b5f6020820190506119525f830184611930565b92915050565b5f8115159050919050565b61196c81611958565b82525050565b5f6020820190506119855f830184611963565b92915050565b5f5f604083850312156119a1576119a0611679565b5b5f6119ae858286016116c3565b92505060206119bf858286016116c3565b9150509250929050565b7f47616d652068617320616c7265616479207374617274656400000000000000005f82015250565b5f6119fd6018836117b1565b9150611a08826119c9565b602082019050919050565b5f6020820190508181035f830152611a2a816119f1565b9050919050565b7f5573657220616c726561647920726567697374657265640000000000000000005f82015250565b5f611a656017836117b1565b9150611a7082611a31565b602082019050919050565b5f6020820190508181035f830152611a9281611a59565b9050919050565b5f819050919050565b5f611abc611ab7611ab284611a99565b611733565b611702565b9050919050565b611acc81611aa2565b82525050565b5f606082019050611ae55f830186611930565b611af26020830185611930565b611aff6040830184611ac3565b949350505050565b611b1081611958565b8114611b1a575f5ffd5b50565b5f81519050611b2b81611b07565b92915050565b5f60208284031215611b4657611b45611679565b5b5f611b5384828501611b1d565b91505092915050565b5f819050919050565b5f611b7f611b7a611b7584611b5c565b611733565b611702565b9050919050565b611b8f81611b65565b82525050565b5f819050919050565b5f611bb8611bb3611bae84611b95565b611733565b611702565b9050919050565b611bc881611b9e565b82525050565b5f604082019050611be15f830185611b86565b611bee6020830184611bbf565b9392505050565b7f4e487b71000000000000000000000000000000000000000000000000000000005f52602260045260245ffd5b5f6002820490506001821680611c3957607f821691505b602082108103611c4c57611c4b611bf5565b5b50919050565b7f456e74726f70792061646472657373206e6f74207365740000000000000000005f82015250565b5f611c866017836117b1565b9150611c9182611c52565b602082019050919050565b5f6020820190508181035f830152611cb381611c7a565b9050919050565b7f4f6e6c7920456e74726f70792063616e2063616c6c20746869732066756e63745f8201527f696f6e0000000000000000000000000000000000000000000000000000000000602082015250565b5f611d146023836117b1565b9150611d1f82611cba565b604082019050919050565b5f6020820190508181035f830152611d4181611d08565b9050919050565b7f4f6e6c79206f776e65722063616e2063616c6c20746869732066756e6374696f5f8201527f6e00000000000000000000000000000000000000000000000000000000000000602082015250565b5f611da26021836117b1565b9150611dad82611d48565b604082019050919050565b5f6020820190508181035f830152611dcf81611d96565b9050919050565b7f47616d6520686173206e6f7420737461727465640000000000000000000000005f82015250565b5f611e0a6014836117b1565b9150611e1582611dd6565b602082019050919050565b5f6020820190508181035f830152611e3781611dfe565b9050919050565b7f47616d652068617320656e6465640000000000000000000000000000000000005f82015250565b5f611e72600e836117b1565b9150611e7d82611e3e565b602082019050919050565b5f6020820190508181035f830152611e9f81611e66565b9050919050565b7f506c6179657231206e6f742072656769737465726564000000000000000000005f82015250565b5f611eda6016836117b1565b9150611ee582611ea6565b602082019050919050565b5f6020820190508181035f830152611f0781611ece565b9050919050565b7f506c6179657232206e6f742072656769737465726564000000000000000000005f82015250565b5f611f426016836117b1565b9150611f4d82611f0e565b602082019050919050565b5f6020820190508181035f830152611f6f81611f36565b9050919050565b7f506c617965723120616e6420506c61796572322063616e6e6f742062652074685f8201527f652073616d650000000000000000000000000000000000000000000000000000602082015250565b5f611fd06026836117b1565b9150611fdb82611f76565b604082019050919050565b5f6020820190508181035f830152611ffd81611fc4565b9050919050565b5f6fffffffffffffffffffffffffffffffff82169050919050565b61202881612004565b8114612032575f5ffd5b50565b5f815190506120438161201f565b92915050565b5f6020828403121561205e5761205d611679565b5b5f61206b84828501612035565b91505092915050565b7f6e6f7420656e6f756768206665657300000000000000000000000000000000005f82015250565b5f6120a8600f836117b1565b91506120b382612074565b602082019050919050565b5f6020820190508181035f8301526120d58161209c565b9050919050565b5f815190506120ea81611883565b92915050565b5f6020828403121561210557612104611679565b5b5f612112848285016120dc565b91505092915050565b7f4e487b71000000000000000000000000000000000000000000000000000000005f52601160045260245ffd5b5f61215282611702565b915061215d83611702565b92508282039050818111156121755761217461211b565b5b92915050565b7f4e487b71000000000000000000000000000000000000000000000000000000005f52601260045260245ffd5b5f6121b282611702565b91506121bd83611702565b9250826121cd576121cc61217b565b5b828204905092915050565b7f506c617965723120686173206e6f2048500000000000000000000000000000005f82015250565b5f61220c6011836117b1565b9150612217826121d8565b602082019050919050565b5f6020820190508181035f83015261223981612200565b9050919050565b7f506c617965723220686173206e6f2048500000000000000000000000000000005f82015250565b5f6122746011836117b1565b915061227f82612240565b602082019050919050565b5f6020820190508181035f8301526122a181612268565b9050919050565b5f6122b282611702565b91506122bd83611702565b92508282019050808211156122d5576122d461211b565b5b92915050565b5f6040820190506122ee5f83018561170b565b6122fb602083018461170b565b9392505050565b5f819050919050565b5f61231582612302565b915061232083612302565b925082820390508181125f8412168282135f8512151617156123455761234461211b565b5b92915050565b5f61235582612302565b915061236083612302565b92508282019050828112155f8312168382125f8412151617156123865761238561211b565b5b92915050565b5f61239682611702565b91506123a183611702565b9250826123b1576123b061217b565b5b82820690509291505056fea26469706673582212201739ca8447322e31525c6824a201e4e1c8ae03ded802c28c9b847efa9d05da7764736f6c634300081d0033","linkReferences":{}},"methodIdentifiers":{"_entropyCallback(uint64,address,bytes32)":"52a5f1f8","battle(address,address)":"b6c206cc","endTime()":"3197cbb6","entropy()":"47ce07cc","gameName()":"473bc223","healthDecayRate()":"69527c64","hp(address)":"0f8e29dd","isRegistered(address)":"c3c5a547","lastUpdatedHpTime(address)":"5fac9102","myHealth(address)":"296d707a","owner()":"8da5cb5b","player1()":"d30895e4","player2()":"59a5f12d","register(address)":"4420e486","registered(address)":"b2dd5c07","startTime()":"78e97925","usdc()":"3e413bee"},"id":24}