{"abi":[{"type":"constructor","inputs":[{"name":"_owner","type":"address","internalType":"address"},{"name":"_entropyAddress","type":"address","internalType":"address"},{"name":"_usdcAddress","type":"address","internalType":"address"},{"name":"_gameName","type":"string","internalType":"string"},{"name":"_startTime","type":"uint256","internalType":"uint256"},{"name":"_endTime","type":"uint256","internalType":"uint256"},{"name":"_healthDecayRate","type":"uint256","internalType":"uint256"}],"stateMutability":"nonpayable"},{"type":"function","name":"_entropyCallback","inputs":[{"name":"sequence","type":"uint64","internalType":"uint64"},{"name":"provider","type":"address","internalType":"address"},{"name":"randomNumber","type":"bytes32","internalType":"bytes32"}],"outputs":[],"stateMutability":"nonpayable"},{"type":"function","name":"battle","inputs":[{"name":"p1","type":"address","internalType":"address"},{"name":"p2","type":"address","internalType":"address"}],"outputs":[],"stateMutability":"payable"},{"type":"function","name":"endTime","inputs":[],"outputs":[{"name":"","type":"uint256","internalType":"uint256"}],"stateMutability":"view"},{"type":"function","name":"entropy","inputs":[],"outputs":[{"name":"","type":"address","internalType":"contract IEntropyV2"}],"stateMutability":"view"},{"type":"function","name":"gameName","inputs":[],"outputs":[{"name":"","type":"string","internalType":"string"}],"stateMutability":"view"},{"type":"function","name":"healthDecayRate","inputs":[],"outputs":[{"name":"","type":"uint256","internalType":"uint256"}],"stateMutability":"view"},{"type":"function","name":"hp","inputs":[{"name":"","type":"address","internalType":"address"}],"outputs":[{"name":"","type":"uint256","internalType":"uint256"}],"stateMutability":"view"},{"type":"function","name":"isRegistered","inputs":[{"name":"user","type":"address","internalType":"address"}],"outputs":[{"name":"","type":"bool","internalType":"bool"}],"stateMutability":"view"},{"type":"function","name":"lastUpdatedHpTime","inputs":[{"name":"","type":"address","internalType":"address"}],"outputs":[{"name":"","type":"uint256","internalType":"uint256"}],"stateMutability":"view"},{"type":"function","name":"myHealth","inputs":[{"name":"user","type":"address","internalType":"address"}],"outputs":[{"name":"","type":"uint256","internalType":"uint256"}],"stateMutability":"view"},{"type":"function","name":"owner","inputs":[],"outputs":[{"name":"","type":"address","internalType":"address"}],"stateMutability":"view"},{"type":"function","name":"player1","inputs":[],"outputs":[{"name":"","type":"address","internalType":"address"}],"stateMutability":"view"},{"type":"function","name":"player2","inputs":[],"outputs":[{"name":"","type":"address","internalType":"address"}],"stateMutability":"view"},{"type":"function","name":"register","inputs":[{"name":"user","type":"address","internalType":"address"}],"outputs":[],"stateMutability":"nonpayable"},{"type":"function","name":"registered","inputs":[{"name":"","type":"address","internalType":"address"}],"outputs":[{"name":"","type":"bool","internalType":"bool"}],"stateMutability":"view"},{"type":"function","name":"startTime","inputs":[],"outputs":[{"name":"","type":"uint256","internalType":"uint256"}],"stateMutability":"view"},{"type":"function","name":"usdc","inputs":[],"outputs":[{"name":"","type":"address","internalType":"contract IERC20"}],"stateMutability":"view"},{"type":"function","name":"withdraw","inputs":[{"name":"usdcAmt","type":"uint256","internalType":"uint256"},{"name":"user","type":"address","internalType":"address"}],"outputs":[],"stateMutability":"nonpayable"},{"type":"event","name":"BattleResult","inputs":[{"name":"winner","type":"address","indexed":true,"internalType":"address"},{"name":"loser","type":"address","indexed":true,"internalType":"address"},{"name":"xpAmount","type":"uint256","indexed":false,"internalType":"uint256"},{"name":"currentTime","type":"uint256","indexed":false,"internalType":"uint256"}],"anonymous":false},{"type":"event","name":"USDCWithdrawn","inputs":[{"name":"user","type":"address","indexed":true,"internalType":"address"},{"name":"amount","type":"uint256","indexed":false,"internalType":"uint256"}],"anonymous":false},{"type":"event","name":"UserRegistered","inputs":[{"name":"user","type":"address","indexed":true,"internalType":"address"},{"name":"xp","type":"uint256","indexed":false,"internalType":"uint256"},{"name":"deposit","type":"uint256","indexed":false,"internalType":"uint256"}],"anonymous":false}],"bytecode":{"object":"0x608060405234801561000f575f5ffd5b5060405161309b38038061309b833981810160405281019061003191906102fb565b865f5f6101000a81548173ffffffffffffffffffffffffffffffffffffffff021916908373ffffffffffffffffffffffffffffffffffffffff16021790555085600a5f6101000a81548173ffffffffffffffffffffffffffffffffffffffff021916908373ffffffffffffffffffffffffffffffffffffffff16021790555083600390816100bf91906105bb565b5082600481905550816005819055508060068190555084600b5f6101000a81548173ffffffffffffffffffffffffffffffffffffffff021916908373ffffffffffffffffffffffffffffffffffffffff1602179055505050505050505061068a565b5f604051905090565b5f5ffd5b5f5ffd5b5f73ffffffffffffffffffffffffffffffffffffffff82169050919050565b5f61015b82610132565b9050919050565b61016b81610151565b8114610175575f5ffd5b50565b5f8151905061018681610162565b92915050565b5f5ffd5b5f5ffd5b5f601f19601f8301169050919050565b7f4e487b71000000000000000000000000000000000000000000000000000000005f52604160045260245ffd5b6101da82610194565b810181811067ffffffffffffffff821117156101f9576101f86101a4565b5b80604052505050565b5f61020b610121565b905061021782826101d1565b919050565b5f67ffffffffffffffff821115610236576102356101a4565b5b61023f82610194565b9050602081019050919050565b8281835e5f83830152505050565b5f61026c6102678461021c565b610202565b90508281526020810184848401111561028857610287610190565b5b61029384828561024c565b509392505050565b5f82601f8301126102af576102ae61018c565b5b81516102bf84826020860161025a565b91505092915050565b5f819050919050565b6102da816102c8565b81146102e4575f5ffd5b50565b5f815190506102f5816102d1565b92915050565b5f5f5f5f5f5f5f60e0888a0312156103165761031561012a565b5b5f6103238a828b01610178565b97505060206103348a828b01610178565b96505060406103458a828b01610178565b955050606088015167ffffffffffffffff8111156103665761036561012e565b5b6103728a828b0161029b565b94505060806103838a828b016102e7565b93505060a06103948a828b016102e7565b92505060c06103a58a828b016102e7565b91505092959891949750929550565b5f81519050919050565b7f4e487b71000000000000000000000000000000000000000000000000000000005f52602260045260245ffd5b5f600282049050600182168061040257607f821691505b602082108103610415576104146103be565b5b50919050565b5f819050815f5260205f209050919050565b5f6020601f8301049050919050565b5f82821b905092915050565b5f600883026104777fffffffffffffffffffffffffffffffffffffffffffffffffffffffffffffffff8261043c565b610481868361043c565b95508019841693508086168417925050509392505050565b5f819050919050565b5f6104bc6104b76104b2846102c8565b610499565b6102c8565b9050919050565b5f819050919050565b6104d5836104a2565b6104e96104e1826104c3565b848454610448565b825550505050565b5f5f905090565b6105006104f1565b61050b8184846104cc565b505050565b5b8181101561052e576105235f826104f8565b600181019050610511565b5050565b601f821115610573576105448161041b565b61054d8461042d565b8101602085101561055c578190505b6105706105688561042d565b830182610510565b50505b505050565b5f82821c905092915050565b5f6105935f1984600802610578565b1980831691505092915050565b5f6105ab8383610584565b9150826002028217905092915050565b6105c4826103b4565b67ffffffffffffffff8111156105dd576105dc6101a4565b5b6105e782546103eb565b6105f2828285610532565b5f60209050601f831160018114610623575f8415610611578287015190505b61061b85826105a0565b865550610682565b601f1984166106318661041b565b5f5b8281101561065857848901518255600182019150602085019450602081019050610633565b868310156106755784890151610671601f891682610584565b8355505b6001600288020188555050505b505050505050565b612a04806106975f395ff3fe608060405260043610610107575f3560e01c806359a5f12d116100945780638da5cb5b116100635780638da5cb5b1461035d578063b2dd5c0714610387578063b6c206cc146103c3578063c3c5a547146103df578063d30895e41461041b57610107565b806359a5f12d146102a35780635fac9102146102cd57806369527c641461030957806378e979251461033357610107565b80633e413bee116100db5780633e413bee146101d55780634420e486146101ff578063473bc2231461022757806347ce07cc1461025157806352a5f1f81461027b57610107565b8062f714ce1461010b5780630f8e29dd14610133578063296d707a1461016f5780633197cbb6146101ab575b5f5ffd5b348015610116575f5ffd5b50610131600480360381019061012c9190611a88565b610445565b005b34801561013e575f5ffd5b5061015960048036038101906101549190611ac6565b610791565b6040516101669190611b00565b60405180910390f35b34801561017a575f5ffd5b5061019560048036038101906101909190611ac6565b6107a6565b6040516101a29190611b00565b60405180910390f35b3480156101b6575f5ffd5b506101bf6107ec565b6040516101cc9190611b00565b60405180910390f35b3480156101e0575f5ffd5b506101e96107f2565b6040516101f69190611b74565b60405180910390f35b34801561020a575f5ffd5b5061022560048036038101906102209190611ac6565b610817565b005b348015610232575f5ffd5b5061023b610abf565b6040516102489190611bfd565b60405180910390f35b34801561025c575f5ffd5b50610265610b4b565b6040516102729190611c3d565b60405180910390f35b348015610286575f5ffd5b506102a1600480360381019061029c9190611cc6565b610b70565b005b3480156102ae575f5ffd5b506102b7610c68565b6040516102c49190611d25565b60405180910390f35b3480156102d8575f5ffd5b506102f360048036038101906102ee9190611ac6565b610c8d565b6040516103009190611b00565b60405180910390f35b348015610314575f5ffd5b5061031d610ca2565b60405161032a9190611b00565b60405180910390f35b34801561033e575f5ffd5b50610347610ca8565b6040516103549190611b00565b60405180910390f35b348015610368575f5ffd5b50610371610cae565b60405161037e9190611d25565b60405180910390f35b348015610392575f5ffd5b506103ad60048036038101906103a89190611ac6565b610cd2565b6040516103ba9190611d58565b60405180910390f35b6103dd60048036038101906103d89190611d71565b610cef565b005b3480156103ea575f5ffd5b5061040560048036038101906104009190611ac6565b611196565b6040516104129190611d58565b60405180910390f35b348015610426575f5ffd5b5061042f6111e8565b60405161043c9190611d25565b60405180910390f35b5f5f9054906101000a900473ffffffffffffffffffffffffffffffffffffffff1673ffffffffffffffffffffffffffffffffffffffff163373ffffffffffffffffffffffffffffffffffffffff16146104d3576040517f08c379a00000000000000000000000000000000000000000000000000000000081526004016104ca90611e1f565b60405180910390fd5b6005544211610517576040517f08c379a000000000000000000000000000000000000000000000000000000000815260040161050e90611e87565b60405180910390fd5b5f8211610559576040517f08c379a000000000000000000000000000000000000000000000000000000000815260040161055090611eef565b60405180910390fd5b5f73ffffffffffffffffffffffffffffffffffffffff168173ffffffffffffffffffffffffffffffffffffffff16036105c7576040517f08c379a00000000000000000000000000000000000000000000000000000000081526004016105be90611f57565b60405180910390fd5b81600b5f9054906101000a900473ffffffffffffffffffffffffffffffffffffffff1673ffffffffffffffffffffffffffffffffffffffff166370a08231306040518263ffffffff1660e01b81526004016106229190611d25565b602060405180830381865afa15801561063d573d5f5f3e3d5ffd5b505050506040513d601f19601f820116820180604052508101906106619190611f89565b10156106a2576040517f08c379a000000000000000000000000000000000000000000000000000000000815260040161069990612024565b60405180910390fd5b600b5f9054906101000a900473ffffffffffffffffffffffffffffffffffffffff1673ffffffffffffffffffffffffffffffffffffffff1663a9059cbb82846040518363ffffffff1660e01b81526004016106fe929190612042565b6020604051808303815f875af115801561071a573d5f5f3e3d5ffd5b505050506040513d601f19601f8201168201806040525081019061073e9190612093565b508073ffffffffffffffffffffffffffffffffffffffff167f2aa7fb97600ea702b454359fc3d02ae9fa48367e7155505d38cee896e5b5aae7836040516107859190611b00565b60405180910390a25050565b6008602052805f5260405f205f915090505481565b5f60085f8373ffffffffffffffffffffffffffffffffffffffff1673ffffffffffffffffffffffffffffffffffffffff1681526020019081526020015f20549050919050565b60055481565b600b5f9054906101000a900473ffffffffffffffffffffffffffffffffffffffff1681565b600454421061085b576040517f08c379a000000000000000000000000000000000000000000000000000000000815260040161085290612108565b60405180910390fd5b60075f8273ffffffffffffffffffffffffffffffffffffffff1673ffffffffffffffffffffffffffffffffffffffff1681526020019081526020015f205f9054906101000a900460ff16156108e5576040517f08c379a00000000000000000000000000000000000000000000000000000000081526004016108dc90612170565b60405180910390fd5b600b5f9054906101000a900473ffffffffffffffffffffffffffffffffffffffff1673ffffffffffffffffffffffffffffffffffffffff166323b872dd3330620f42406040518463ffffffff1660e01b8152600401610946939291906121c7565b6020604051808303815f875af1158015610962573d5f5f3e3d5ffd5b505050506040513d601f19601f820116820180604052508101906109869190612093565b50600160075f8373ffffffffffffffffffffffffffffffffffffffff1673ffffffffffffffffffffffffffffffffffffffff1681526020019081526020015f205f6101000a81548160ff021916908315150217905550606460085f8373ffffffffffffffffffffffffffffffffffffffff1673ffffffffffffffffffffffffffffffffffffffff1681526020019081526020015f208190555060045460095f8373ffffffffffffffffffffffffffffffffffffffff1673ffffffffffffffffffffffffffffffffffffffff1681526020019081526020015f20819055508073ffffffffffffffffffffffffffffffffffffffff167f47c8e83729a89f8b0c23b722e4c21f48295ddfcd683910c564e11e6b6037d01c6064670de0b6b3a7640000604051610ab492919061226e565b60405180910390a250565b60038054610acc906122c2565b80601f0160208091040260200160405190810160405280929190818152602001828054610af8906122c2565b8015610b435780601f10610b1a57610100808354040283529160200191610b43565b820191905f5260205f20905b815481529060010190602001808311610b2657829003601f168201915b505050505081565b600a5f9054906101000a900473ffffffffffffffffffffffffffffffffffffffff1681565b5f610b7961120d565b90505f73ffffffffffffffffffffffffffffffffffffffff168173ffffffffffffffffffffffffffffffffffffffff1603610be9576040517f08c379a0000000000000000000000000000000000000000000000000000000008152600401610be09061233c565b60405180910390fd5b8073ffffffffffffffffffffffffffffffffffffffff163373ffffffffffffffffffffffffffffffffffffffff1614610c57576040517f08c379a0000000000000000000000000000000000000000000000000000000008152600401610c4e906123ca565b60405180910390fd5b610c62848484611235565b50505050565b60025f9054906101000a900473ffffffffffffffffffffffffffffffffffffffff1681565b6009602052805f5260405f205f915090505481565b60065481565b60045481565b5f5f9054906101000a900473ffffffffffffffffffffffffffffffffffffffff1681565b6007602052805f5260405f205f915054906101000a900460ff1681565b5f5f9054906101000a900473ffffffffffffffffffffffffffffffffffffffff1673ffffffffffffffffffffffffffffffffffffffff163373ffffffffffffffffffffffffffffffffffffffff1614610d7d576040517f08c379a0000000000000000000000000000000000000000000000000000000008152600401610d7490611e1f565b60405180910390fd5b600454421015610dc2576040517f08c379a0000000000000000000000000000000000000000000000000000000008152600401610db990612432565b60405180910390fd5b600554421115610e07576040517f08c379a0000000000000000000000000000000000000000000000000000000008152600401610dfe9061249a565b60405180910390fd5b60075f8373ffffffffffffffffffffffffffffffffffffffff1673ffffffffffffffffffffffffffffffffffffffff1681526020019081526020015f205f9054906101000a900460ff16610e90576040517f08c379a0000000000000000000000000000000000000000000000000000000008152600401610e8790612502565b60405180910390fd5b60075f8273ffffffffffffffffffffffffffffffffffffffff1673ffffffffffffffffffffffffffffffffffffffff1681526020019081526020015f205f9054906101000a900460ff16610f19576040517f08c379a0000000000000000000000000000000000000000000000000000000008152600401610f109061256a565b60405180910390fd5b8073ffffffffffffffffffffffffffffffffffffffff168273ffffffffffffffffffffffffffffffffffffffff1603610f87576040517f08c379a0000000000000000000000000000000000000000000000000000000008152600401610f7e906125f8565b60405180910390fd5b8160015f6101000a81548173ffffffffffffffffffffffffffffffffffffffff021916908373ffffffffffffffffffffffffffffffffffffffff1602179055508060025f6101000a81548173ffffffffffffffffffffffffffffffffffffffff021916908373ffffffffffffffffffffffffffffffffffffffff1602179055505f600a5f9054906101000a900473ffffffffffffffffffffffffffffffffffffffff1673ffffffffffffffffffffffffffffffffffffffff16638204b67a6040518163ffffffff1660e01b8152600401602060405180830381865afa158015611072573d5f5f3e3d5ffd5b505050506040513d601f19601f82011682018060405250810190611096919061265b565b9050806fffffffffffffffffffffffffffffffff163410156110ed576040517f08c379a00000000000000000000000000000000000000000000000000000000081526004016110e4906126d0565b60405180910390fd5b600a5f9054906101000a900473ffffffffffffffffffffffffffffffffffffffff1673ffffffffffffffffffffffffffffffffffffffff16637b43155d826fffffffffffffffffffffffffffffffff166040518263ffffffff1660e01b815260040160206040518083038185885af115801561116b573d5f5f3e3d5ffd5b50505050506040513d601f19601f820116820180604052508101906111909190612702565b50505050565b5f60075f8373ffffffffffffffffffffffffffffffffffffffff1673ffffffffffffffffffffffffffffffffffffffff1681526020019081526020015f205f9054906101000a900460ff169050919050565b60015f9054906101000a900473ffffffffffffffffffffffffffffffffffffffff1681565b5f600a5f9054906101000a900473ffffffffffffffffffffffffffffffffffffffff16905090565b5f4290505f60095f60015f9054906101000a900473ffffffffffffffffffffffffffffffffffffffff1673ffffffffffffffffffffffffffffffffffffffff1673ffffffffffffffffffffffffffffffffffffffff1681526020019081526020015f2054826112a4919061275a565b90505f60095f60025f9054906101000a900473ffffffffffffffffffffffffffffffffffffffff1673ffffffffffffffffffffffffffffffffffffffff1673ffffffffffffffffffffffffffffffffffffffff1681526020019081526020015f205483611311919061275a565b90505f6006548361132291906127ba565b90505f6006548361133391906127ba565b90505f60085f60015f9054906101000a900473ffffffffffffffffffffffffffffffffffffffff1673ffffffffffffffffffffffffffffffffffffffff1673ffffffffffffffffffffffffffffffffffffffff1681526020019081526020015f205490505f60085f60025f9054906101000a900473ffffffffffffffffffffffffffffffffffffffff1673ffffffffffffffffffffffffffffffffffffffff1673ffffffffffffffffffffffffffffffffffffffff1681526020019081526020015f2054905081841115611465575f60085f60015f9054906101000a900473ffffffffffffffffffffffffffffffffffffffff1673ffffffffffffffffffffffffffffffffffffffff1673ffffffffffffffffffffffffffffffffffffffff1681526020019081526020015f20819055505b808311156114d1575f60085f60025f9054906101000a900473ffffffffffffffffffffffffffffffffffffffff1673ffffffffffffffffffffffffffffffffffffffff1673ffffffffffffffffffffffffffffffffffffffff1681526020019081526020015f20819055505b5f60085f60015f9054906101000a900473ffffffffffffffffffffffffffffffffffffffff1673ffffffffffffffffffffffffffffffffffffffff1673ffffffffffffffffffffffffffffffffffffffff1681526020019081526020015f205411611571576040517f08c379a000000000000000000000000000000000000000000000000000000000815260040161156890612834565b60405180910390fd5b5f60085f60025f9054906101000a900473ffffffffffffffffffffffffffffffffffffffff1673ffffffffffffffffffffffffffffffffffffffff1673ffffffffffffffffffffffffffffffffffffffff1681526020019081526020015f205411611611576040517f08c379a00000000000000000000000000000000000000000000000000000000081526004016116089061289c565b60405180910390fd5b5f61161f89600160646119b8565b90505f61162f8a600160026119b8565b90506001810361173c578582611645919061275a565b60085f60015f9054906101000a900473ffffffffffffffffffffffffffffffffffffffff1673ffffffffffffffffffffffffffffffffffffffff1673ffffffffffffffffffffffffffffffffffffffff1681526020019081526020015f205f8282546116b191906128ba565b9250508190555084826116c4919061275a565b60085f60025f9054906101000a900473ffffffffffffffffffffffffffffffffffffffff1673ffffffffffffffffffffffffffffffffffffffff1673ffffffffffffffffffffffffffffffffffffffff1681526020019081526020015f205f828254611730919061275a565b9250508190555061183b565b8482611748919061275a565b60085f60025f9054906101000a900473ffffffffffffffffffffffffffffffffffffffff1673ffffffffffffffffffffffffffffffffffffffff1673ffffffffffffffffffffffffffffffffffffffff1681526020019081526020015f205f8282546117b491906128ba565b9250508190555085826117c7919061275a565b60085f60015f9054906101000a900473ffffffffffffffffffffffffffffffffffffffff1673ffffffffffffffffffffffffffffffffffffffff1673ffffffffffffffffffffffffffffffffffffffff1681526020019081526020015f205f828254611833919061275a565b925050819055505b8860095f60015f9054906101000a900473ffffffffffffffffffffffffffffffffffffffff1673ffffffffffffffffffffffffffffffffffffffff1673ffffffffffffffffffffffffffffffffffffffff1681526020019081526020015f20819055508860095f60025f9054906101000a900473ffffffffffffffffffffffffffffffffffffffff1673ffffffffffffffffffffffffffffffffffffffff1673ffffffffffffffffffffffffffffffffffffffff1681526020019081526020015f208190555060025f9054906101000a900473ffffffffffffffffffffffffffffffffffffffff1673ffffffffffffffffffffffffffffffffffffffff1660015f9054906101000a900473ffffffffffffffffffffffffffffffffffffffff1673ffffffffffffffffffffffffffffffffffffffff167ff22f53e90e26ecbc38cf5af16a7befaeea129d17062e49b461a97a9a43c01161848c6040516119a29291906128ed565b60405180910390a3505050505050505050505050565b5f5f600184846119c8919061291d565b6119d2919061295d565b905080855f1c6119e2919061299e565b846119ed919061295d565b9150509392505050565b5f5ffd5b5f819050919050565b611a0d816119fb565b8114611a17575f5ffd5b50565b5f81359050611a2881611a04565b92915050565b5f73ffffffffffffffffffffffffffffffffffffffff82169050919050565b5f611a5782611a2e565b9050919050565b611a6781611a4d565b8114611a71575f5ffd5b50565b5f81359050611a8281611a5e565b92915050565b5f5f60408385031215611a9e57611a9d6119f7565b5b5f611aab85828601611a1a565b9250506020611abc85828601611a74565b9150509250929050565b5f60208284031215611adb57611ada6119f7565b5b5f611ae884828501611a74565b91505092915050565b611afa816119fb565b82525050565b5f602082019050611b135f830184611af1565b92915050565b5f819050919050565b5f611b3c611b37611b3284611a2e565b611b19565b611a2e565b9050919050565b5f611b4d82611b22565b9050919050565b5f611b5e82611b43565b9050919050565b611b6e81611b54565b82525050565b5f602082019050611b875f830184611b65565b92915050565b5f81519050919050565b5f82825260208201905092915050565b8281835e5f83830152505050565b5f601f19601f8301169050919050565b5f611bcf82611b8d565b611bd98185611b97565b9350611be9818560208601611ba7565b611bf281611bb5565b840191505092915050565b5f6020820190508181035f830152611c158184611bc5565b905092915050565b5f611c2782611b43565b9050919050565b611c3781611c1d565b82525050565b5f602082019050611c505f830184611c2e565b92915050565b5f67ffffffffffffffff82169050919050565b611c7281611c56565b8114611c7c575f5ffd5b50565b5f81359050611c8d81611c69565b92915050565b5f819050919050565b611ca581611c93565b8114611caf575f5ffd5b50565b5f81359050611cc081611c9c565b92915050565b5f5f5f60608486031215611cdd57611cdc6119f7565b5b5f611cea86828701611c7f565b9350506020611cfb86828701611a74565b9250506040611d0c86828701611cb2565b9150509250925092565b611d1f81611a4d565b82525050565b5f602082019050611d385f830184611d16565b92915050565b5f8115159050919050565b611d5281611d3e565b82525050565b5f602082019050611d6b5f830184611d49565b92915050565b5f5f60408385031215611d8757611d866119f7565b5b5f611d9485828601611a74565b9250506020611da585828601611a74565b9150509250929050565b7f4f6e6c79206f776e65722063616e2063616c6c20746869732066756e6374696f5f8201527f6e00000000000000000000000000000000000000000000000000000000000000602082015250565b5f611e09602183611b97565b9150611e1482611daf565b604082019050919050565b5f6020820190508181035f830152611e3681611dfd565b9050919050565b7f47616d6520686173206e6f7420656e64656400000000000000000000000000005f82015250565b5f611e71601283611b97565b9150611e7c82611e3d565b602082019050919050565b5f6020820190508181035f830152611e9e81611e65565b9050919050565b7f416d6f756e74206d7573742062652067726561746572207468616e20300000005f82015250565b5f611ed9601d83611b97565b9150611ee482611ea5565b602082019050919050565b5f6020820190508181035f830152611f0681611ecd565b9050919050565b7f496e76616c6964207573657220616464726573730000000000000000000000005f82015250565b5f611f41601483611b97565b9150611f4c82611f0d565b602082019050919050565b5f6020820190508181035f830152611f6e81611f35565b9050919050565b5f81519050611f8381611a04565b92915050565b5f60208284031215611f9e57611f9d6119f7565b5b5f611fab84828501611f75565b91505092915050565b7f496e73756666696369656e7420555344432062616c616e636520696e20636f6e5f8201527f7472616374000000000000000000000000000000000000000000000000000000602082015250565b5f61200e602583611b97565b915061201982611fb4565b604082019050919050565b5f6020820190508181035f83015261203b81612002565b9050919050565b5f6040820190506120555f830185611d16565b6120626020830184611af1565b9392505050565b61207281611d3e565b811461207c575f5ffd5b50565b5f8151905061208d81612069565b92915050565b5f602082840312156120a8576120a76119f7565b5b5f6120b58482850161207f565b91505092915050565b7f47616d652068617320616c7265616479207374617274656400000000000000005f82015250565b5f6120f2601883611b97565b91506120fd826120be565b602082019050919050565b5f6020820190508181035f83015261211f816120e6565b9050919050565b7f5573657220616c726561647920726567697374657265640000000000000000005f82015250565b5f61215a601783611b97565b915061216582612126565b602082019050919050565b5f6020820190508181035f8301526121878161214e565b9050919050565b5f819050919050565b5f6121b16121ac6121a78461218e565b611b19565b6119fb565b9050919050565b6121c181612197565b82525050565b5f6060820190506121da5f830186611d16565b6121e76020830185611d16565b6121f460408301846121b8565b949350505050565b5f819050919050565b5f61221f61221a612215846121fc565b611b19565b6119fb565b9050919050565b61222f81612205565b82525050565b5f819050919050565b5f61225861225361224e84612235565b611b19565b6119fb565b9050919050565b6122688161223e565b82525050565b5f6040820190506122815f830185612226565b61228e602083018461225f565b9392505050565b7f4e487b71000000000000000000000000000000000000000000000000000000005f52602260045260245ffd5b5f60028204905060018216806122d957607f821691505b6020821081036122ec576122eb612295565b5b50919050565b7f456e74726f70792061646472657373206e6f74207365740000000000000000005f82015250565b5f612326601783611b97565b9150612331826122f2565b602082019050919050565b5f6020820190508181035f8301526123538161231a565b9050919050565b7f4f6e6c7920456e74726f70792063616e2063616c6c20746869732066756e63745f8201527f696f6e0000000000000000000000000000000000000000000000000000000000602082015250565b5f6123b4602383611b97565b91506123bf8261235a565b604082019050919050565b5f6020820190508181035f8301526123e1816123a8565b9050919050565b7f47616d6520686173206e6f7420737461727465640000000000000000000000005f82015250565b5f61241c601483611b97565b9150612427826123e8565b602082019050919050565b5f6020820190508181035f83015261244981612410565b9050919050565b7f47616d652068617320656e6465640000000000000000000000000000000000005f82015250565b5f612484600e83611b97565b915061248f82612450565b602082019050919050565b5f6020820190508181035f8301526124b181612478565b9050919050565b7f506c6179657231206e6f742072656769737465726564000000000000000000005f82015250565b5f6124ec601683611b97565b91506124f7826124b8565b602082019050919050565b5f6020820190508181035f830152612519816124e0565b9050919050565b7f506c6179657232206e6f742072656769737465726564000000000000000000005f82015250565b5f612554601683611b97565b915061255f82612520565b602082019050919050565b5f6020820190508181035f83015261258181612548565b9050919050565b7f506c617965723120616e6420506c61796572322063616e6e6f742062652074685f8201527f652073616d650000000000000000000000000000000000000000000000000000602082015250565b5f6125e2602683611b97565b91506125ed82612588565b604082019050919050565b5f6020820190508181035f83015261260f816125d6565b9050919050565b5f6fffffffffffffffffffffffffffffffff82169050919050565b61263a81612616565b8114612644575f5ffd5b50565b5f8151905061265581612631565b92915050565b5f602082840312156126705761266f6119f7565b5b5f61267d84828501612647565b91505092915050565b7f6e6f7420656e6f756768206665657300000000000000000000000000000000005f82015250565b5f6126ba600f83611b97565b91506126c582612686565b602082019050919050565b5f6020820190508181035f8301526126e7816126ae565b9050919050565b5f815190506126fc81611c69565b92915050565b5f60208284031215612717576127166119f7565b5b5f612724848285016126ee565b91505092915050565b7f4e487b71000000000000000000000000000000000000000000000000000000005f52601160045260245ffd5b5f612764826119fb565b915061276f836119fb565b92508282039050818111156127875761278661272d565b5b92915050565b7f4e487b71000000000000000000000000000000000000000000000000000000005f52601260045260245ffd5b5f6127c4826119fb565b91506127cf836119fb565b9250826127df576127de61278d565b5b828204905092915050565b7f506c617965723120686173206e6f2048500000000000000000000000000000005f82015250565b5f61281e601183611b97565b9150612829826127ea565b602082019050919050565b5f6020820190508181035f83015261284b81612812565b9050919050565b7f506c617965723220686173206e6f2048500000000000000000000000000000005f82015250565b5f612886601183611b97565b915061289182612852565b602082019050919050565b5f6020820190508181035f8301526128b38161287a565b9050919050565b5f6128c4826119fb565b91506128cf836119fb565b92508282019050808211156128e7576128e661272d565b5b92915050565b5f6040820190506129005f830185611af1565b61290d6020830184611af1565b9392505050565b5f819050919050565b5f61292782612914565b915061293283612914565b925082820390508181125f8412168282135f8512151617156129575761295661272d565b5b92915050565b5f61296782612914565b915061297283612914565b92508282019050828112155f8312168382125f8412151617156129985761299761272d565b5b92915050565b5f6129a8826119fb565b91506129b3836119fb565b9250826129c3576129c261278d565b5b82820690509291505056fea2646970667358221220201aa892e17e9d3015dcad72ed4008fc09d0944141273670a48953ca76c628b364736f6c634300081d0033","linkReferences":{}},"methodIdentifiers":{"_entropyCallback(uint64,address,bytes32)":"52a5f1f8","battle(address,address)":"b6c206cc","endTime()":"3197cbb6","entropy()":"47ce07cc","gameName()":"473bc223","healthDecayRate()":"69527c64","hp(address)":"0f8e29dd","isRegistered(address)":"c3c5a547","lastUpdatedHpTime(address)":"5fac9102","myHealth(address)":"296d707a","owner()":"8da5cb5b","player1()":"d30895e4","player2()":"59a5f12d","register(address)":"4420e486","registered(address)":"b2dd5c07","startTime()":"78e97925","usdc()":"3e413bee","withdraw(uint256,address)":"00f714ce"},"id":27}