{"abi":[{"type":"constructor","inputs":[{"name":"_entropy","type":"address","internalType":"address"}],"stateMutability":"nonpayable"},{"type":"function","name":"_entropyCallback","inputs":[{"name":"sequence","type":"uint64","internalType":"uint64"},{"name":"provider","type":"address","internalType":"address"},{"name":"randomNumber","type":"bytes32","internalType":"bytes32"}],"outputs":[],"stateMutability":"nonpayable"},{"type":"function","name":"getXNumber","inputs":[],"outputs":[{"name":"","type":"uint256","internalType":"uint256"}],"stateMutability":"view"},{"type":"function","name":"request","inputs":[],"outputs":[],"stateMutability":"payable"},{"type":"function","name":"xNumber","inputs":[],"outputs":[{"name":"","type":"uint256","internalType":"uint256"}],"stateMutability":"view"},{"type":"event","name":"FlipRequested","inputs":[{"name":"sequenceNumber","type":"uint64","indexed":false,"internalType":"uint64"}],"anonymous":false},{"type":"event","name":"FlipResult","inputs":[{"name":"sequenceNumber","type":"uint64","indexed":false,"internalType":"uint64"},{"name":"xNumber","type":"uint256","indexed":false,"internalType":"uint256"}],"anonymous":false}],"bytecode":{"object":"0x608060405234801561000f575f5ffd5b50604051610901380380610901833981810160405281019061003191906100d5565b8060015f6101000a81548173ffffffffffffffffffffffffffffffffffffffff021916908373ffffffffffffffffffffffffffffffffffffffff16021790555050610100565b5f5ffd5b5f73ffffffffffffffffffffffffffffffffffffffff82169050919050565b5f6100a48261007b565b9050919050565b6100b48161009a565b81146100be575f5ffd5b50565b5f815190506100cf816100ab565b92915050565b5f602082840312156100ea576100e9610077565b5b5f6100f7848285016100c1565b91505092915050565b6107f48061010d5f395ff3fe60806040526004361061003e575f3560e01c8063338cdca11461004257806352a5f1f81461004c57806375bfcc1214610074578063b5da8ec11461009e575b5f5ffd5b61004a6100c8565b005b348015610057575f5ffd5b50610072600480360381019061006d91906104d1565b61028f565b005b34801561007f575f5ffd5b50610088610387565b6040516100959190610539565b60405180910390f35b3480156100a9575f5ffd5b506100b261038c565b6040516100bf9190610539565b60405180910390f35b5f60015f9054906101000a900473ffffffffffffffffffffffffffffffffffffffff1673ffffffffffffffffffffffffffffffffffffffff16638204b67a6040518163ffffffff1660e01b8152600401602060405180830381865afa158015610133573d5f5f3e3d5ffd5b505050506040513d601f19601f820116820180604052508101906101579190610597565b9050806fffffffffffffffffffffffffffffffff163410156101ae576040517f08c379a00000000000000000000000000000000000000000000000000000000081526004016101a59061061c565b60405180910390fd5b5f60015f9054906101000a900473ffffffffffffffffffffffffffffffffffffffff1673ffffffffffffffffffffffffffffffffffffffff16637b43155d836fffffffffffffffffffffffffffffffff166040518263ffffffff1660e01b815260040160206040518083038185885af115801561022d573d5f5f3e3d5ffd5b50505050506040513d601f19601f82011682018060405250810190610252919061064e565b90507ffa799b9e877ad8ba8cfe8ce336553b81d71baa1d2a9a1b1cfbddf3e27a9f71f6816040516102839190610688565b60405180910390a15050565b5f610298610394565b90505f73ffffffffffffffffffffffffffffffffffffffff168173ffffffffffffffffffffffffffffffffffffffff1603610308576040517f08c379a00000000000000000000000000000000000000000000000000000000081526004016102ff906106eb565b60405180910390fd5b8073ffffffffffffffffffffffffffffffffffffffff163373ffffffffffffffffffffffffffffffffffffffff1614610376576040517f08c379a000000000000000000000000000000000000000000000000000000000815260040161036d90610779565b60405180910390fd5b6103818484846103bc565b50505050565b5f5481565b5f5f54905090565b5f60015f9054906101000a900473ffffffffffffffffffffffffffffffffffffffff16905090565b805f1c5f819055507f819eb23cee3e97cafecd70af90b7c2fab827ab9b82939c9196670762211765b0835f546040516103f6929190610797565b60405180910390a1505050565b5f5ffd5b5f67ffffffffffffffff82169050919050565b61042381610407565b811461042d575f5ffd5b50565b5f8135905061043e8161041a565b92915050565b5f73ffffffffffffffffffffffffffffffffffffffff82169050919050565b5f61046d82610444565b9050919050565b61047d81610463565b8114610487575f5ffd5b50565b5f8135905061049881610474565b92915050565b5f819050919050565b6104b08161049e565b81146104ba575f5ffd5b50565b5f813590506104cb816104a7565b92915050565b5f5f5f606084860312156104e8576104e7610403565b5b5f6104f586828701610430565b93505060206105068682870161048a565b9250506040610517868287016104bd565b9150509250925092565b5f819050919050565b61053381610521565b82525050565b5f60208201905061054c5f83018461052a565b92915050565b5f6fffffffffffffffffffffffffffffffff82169050919050565b61057681610552565b8114610580575f5ffd5b50565b5f815190506105918161056d565b92915050565b5f602082840312156105ac576105ab610403565b5b5f6105b984828501610583565b91505092915050565b5f82825260208201905092915050565b7f6e6f7420656e6f756768206665657300000000000000000000000000000000005f82015250565b5f610606600f836105c2565b9150610611826105d2565b602082019050919050565b5f6020820190508181035f830152610633816105fa565b9050919050565b5f815190506106488161041a565b92915050565b5f6020828403121561066357610662610403565b5b5f6106708482850161063a565b91505092915050565b61068281610407565b82525050565b5f60208201905061069b5f830184610679565b92915050565b7f456e74726f70792061646472657373206e6f74207365740000000000000000005f82015250565b5f6106d56017836105c2565b91506106e0826106a1565b602082019050919050565b5f6020820190508181035f830152610702816106c9565b9050919050565b7f4f6e6c7920456e74726f70792063616e2063616c6c20746869732066756e63745f8201527f696f6e0000000000000000000000000000000000000000000000000000000000602082015250565b5f6107636023836105c2565b915061076e82610709565b604082019050919050565b5f6020820190508181035f83015261079081610757565b9050919050565b5f6040820190506107aa5f830185610679565b6107b7602083018461052a565b939250505056fea2646970667358221220c161e491cb413a1df59032dd93ce5f5ab6e006e1a76ab5493daee1f8c12ca71764736f6c634300081d0033","linkReferences":{}},"methodIdentifiers":{"_entropyCallback(uint64,address,bytes32)":"52a5f1f8","getXNumber()":"b5da8ec1","request()":"338cdca1","xNumber()":"75bfcc12"},"id":22}